:1000000000308A00422900000A108A100A11820773
:1000100028340C34013406340A108A100A1182077D
:100020000C342034683465346C346C346F342034D0
:1000300031340034253084008313000803192D283F
:100040000630F800F701F70B2328F80B22287B3045
:10005000F700F70B2928800B202800342C183228B1
:10006000081233280816831608128312AC183A288F
:1000700088123B2888168316881283122C1942286E
:10008000081343280817831608138312AC194A284B
:1000900088134B28881783168813000009118312D0
:1000A00009150330F700F70B532883160911831243
:1000B00009110034AD018316091183120915602856
:1000C000612800008316081683122D10081A2D14BB
:1000D000831688168312AD10881AAD14831608177C
:1000E00083122D11081B2D15831688178312AD114D
:1000F000881BAD1583160911831209117F288028EA
:1001000000002D08F800003483160910831209102E
:10011000831689108312891400005A207808AC00D5
:100120005A207808AB002C0EF700F030F70577085E
:100130002B04F8007808AB00AB1B8828A90803192A
:10014000A6288316091083120914AA2883160910F9
:100150008312091000008316891083128910000091
:1001600083160911831209112A0EAB000F30AB055B
:100170002B08AC002E202A080F39AB00AC002E2033
:100180000034831609108312091083168910831214
:10019000891083160911831209112330A5001A2032
:1001A000A3012308023C031CDD280330AC002E20F1
:1001B0000530A5001A20A30AD1280230AC002E2059
:1001C000A3012308033C031CEE2823080420A400F9
:1001D000A9012408AA008420A30AE1280130A10073
:1001E0008A110A12A3292508A10001302502A700BF
:1001F0002708073C0318FE283830A707270880384F
:10020000A800A9012808AA008420003424080C3A78
:1002100003191129063A03191B29023A0319202947
:100220002F29A9010130AA0084200230A5001A203C
:100230000130A1003F290130A500A600F3203F298D
:10024000A9011030AA008420A1032108083C031D45
:100250002E290830A5000130A600F3203F290130E7
:10026000A9002408AA008420A10A2108093C031D32
:100270003E290930A5000130A600F3203F298A114C
:100280000A12AC29840183131F3083058130831641
:100290009900A630980090308312980083161F149E
:1002A0009F141F159F1107309C00FF308312A00080
:1002B000831681131F149F141F119F111F13831284
:1002C0001F139F1383169F1383121F148316091283
:1002D0000108C7390838810085308312900000304A
:1002E000F80006389200FF30831692008312201522
:1002F00020088316870083129701A0102008831618
:100300008700831287100C309D009B0107308316F5
:100310009C0005081030F700F70B8C2900001C0822
:1003200083120D1383169D0183128B1583168C1671
:10033000C03083128B0400308316880009108910A6
:1003400009118312C128A30123080C2000380319C6
:10035000AD29A30AA4000629A4290430A300FA3079
:0C036000A5001A20A30BAF29AD296300F3
:02400E00323F3F
:00000001FF
;PIC16F877A
